:03000000020026D5
:0C002600787FE4F6D8FD75812002006DA3
:06001A00C102C181C1001A
:10000300759850758920758DFD758BFDD28ED2AC98
:07001300D2AF75993180FBAB
:030023000200B226
:1000B200C0E0C0D030981EC298D202859908E508E7
:1000C200B43102D290E508B43002C290E508B424FB
:0E00D20008D2008004C299D201D0D0D0E03212
:10003200020003E493A3F8E493A34003F68001F2E1
:1000420008DFF48029E493A3F85407240CC8C333CF
:10005200C4540F4420C8834004F456800146F6DF9E
:10006200E4800B010204081020408090001AE47E14
:10007200019360BCA3FF543F30E509541FFEE49393
:10008200A360010ECF54C025E060A840B8E493A35A
:10009200FAE493A3F8E493A3C8C582C8CAC583CA85
:1000A200F0A3C8C582C8CAC583CADFE9DEE780BE3D
:0100200000DF
:00000001FF
